:020000040800F2
:1000000018590020F1020008FF020008010300084F
:1000100003030008050300080703000800000000B0
:10002000000000000000000000000000390200088D
:100030000B030008000000008D020008750A00088C
:100040001103000811030008110300081103000840
:100050001103000811030008110300081103000830
:100060001103000811030008110300081103000820
:100070001103000811030008110300081103000810
:100080001103000811030008110300081103000800
:1000900011030008110300081103000811030008F0
:1000A00011030008110300081103000811030008E0
:1000B00011030008910B0008110300081103000848
:1000C00011030008110300081103000811030008C0
:1000D00011030008150C00081103000811030008A3
:1000E00011030008110300081103000811030008A0
:1000F0001103000811030008110300081103000890
:10010000110300081103000811030008110300087F
:10011000110300081103000811030008110300086F
:10012000110300081103000811030008110300085F
:10013000110300081103000811030008110300084F
:10014000110300081103000811030008110300083F
:10015000110300081103000811030008110300082F
:10016000110300081103000811030008110300081F
:10017000110300081103000811030008110300080F
:10018000110300081103000800F002F800F044F821
:100190000AA090E8000C82448344AAF10107DA45E2
:1001A00001D100F039F8AFF2090EBAE80F0013F0F0
:1001B000010F18BFFB1A43F0010318472C30000051
:1001C0004C300000103A24BF78C878C1FAD85207E2
:1001D00024BF30C830C144BF04680C6070470000C1
:1001E0000023002400250026103A28BF78C1FBD840
:1001F000520728BF30C148BF0B607047642900F028
:100200000581732900F01282002070471FB502F0AB
:10021000E5FF1FBD10B510BD00F09DFA1146FFF7B8
:10022000F5FF00F08DFD00F0BBFA03B4FFF7F2FF1D
:1002300003BC00F02FFD00002A4B19680868B0E8E5
:10024000F04F80F30988BFF36F8F4FF0000080F309
:10025000118870470000000006480068006880F3BD
:10026000088862B661B6BFF34F8FBFF36F8F00DFB0
:1002700000BF00BF08ED00E0DFF80C00016841F4AA
:1002800070010160704700BF88ED00E0EFF3098066
:10029000BFF36F8F134B1A681EF0100F08BF20EDCD
:1002A000108A20E9F04F106008B44FF0500080F33E
:1002B0001188BFF34F8FBFF36F8F02F04BF84FF0F1
:1002C000000080F3118808BC19680868B0E8F04F96
:1002D0001EF0100F08BFB0EC108A80F30988BFF33E
:1002E0006F8F704728000020EFF3058070470000F3
:1002F0000B48016841F4700101600A480047FEE7BD
:10030000FEE7FEE7FEE7FEE7FEE7FEE7FEE7FEE7C5
:10031000FEE7000004480549034A054B704700000A
:1003200088ED00E0890100081855002018590020C8
:1003300018550020704700000FB4044910B503AAF7
:10034000029800F077F910BC5DF814FB180000204B
:100350002DE9F0410E460446002020622046E16867
:10036000884730B3252805D0D4E901219047206A79
:10037000401CF2E7E168204600278847050018D0B6
:10038000A5F14100192802D820354FF40067324604
:10039000294620462760FFF731FF40B1012804D0ED
:1003A000F61D26F007060836D8E7361DD6E728469C
:1003B000DAE7206ABDE8F08170B50C460546012AEF
:1003C00005D02878800600D5EA69002302E00123E1
:1003D00005E05B1C934202D2E05C0028F9D1A869D9
:1003E000E618C01AA861286A184428622846AFF3A4
:1003F000008004E0D5E9012114F8010B9047B442D4
:10040000F8D32846AFF3008070BD00002DE9F0411D
:100410000646002410687529314616A510D0AFF3A2
:100420000080002802DA404213A507E031688A07FD
:1004300001D512A502E0490704D511A5012401E068
:10044000AFF3008000210A2206F1240709E0B0FB87
:10045000F2FCB0FBF2F302FB1C003030785418467B
:10046000491C0028F3D123462A463046BDE8F04116
:1004700000F059B8000000002D0000002B00000023
:1004800020000000032A40F2308010F0030C00F03E
:10049000158011F8013BBCF1020F624498BF11F8BE
:1004A00001CB00F8013B38BF11F8013BA2F1040277
:1004B00098BF00F801CB38BF00F8013B11F00303EF
:1004C00000F0CA80083AC0F0088051F8043B083AAE
:1004D00051F804CBA0E80810F5E7121D5CBF51F8F5
:1004E000043B40F8043BAFF30080D20724BF11F86F
:1004F000013B11F801CB48BF11F8012B24BF00F8D4
:10050000013B00F801CB48BF00F8012B704702F017
:10051000FF0343EA032242EA024200F0D1B87047E7
:100520007047704770472DE9F0470D46994692464F
:10053000044600F124080168880604D5E06921F02A
:100540001001216000E00120A84201DD471B00E00E
:100550000027A1697A1902EB0900081AA061207826
:10056000C00602D42046AFF30080002608E0D4E99C
:1005700001211AF806009047206A401C761C206270
:100580004E45F4DB2078C0060AD52046AFF3008044
:1005900006E0D4E9012130209047206A401C206207
:1005A000381EA7F10107F4DC07E0D4E9012118F8AF
:1005B00005009047206A401C2062281EA5F1010515
:1005C000F3DC2046AFF300802078000602D502203D
:1005D000BDE8F0870120FBE701694A1C0261087849
:1005E000704700B58FB0CDE9013100210591054973
:1005F0007944CDE9031011466846FFF7A9FE0FB014
:1006000000BD0000E5FFFFFF10B5436913B1AFF374
:10061000008001E0FFF7D0FE012010BD127800F14C
:1006200024010A7000224A700122EDE711684FF0A0
:10063000FF32E9E7074B70B50D467B44FFF7D1FF6A
:100640000446284600F05CF810B14FF0FF3070BD52
:10065000204670BD9F06000010B5203AC0F00B8008
:10066000B1E81850203AA0E81850B1E81850A0E8B6
:100670001850BFF4F5AF5FEA027C24BFB1E8185010
:10068000A0E8185044BF18C918C0BDE810405FEA80
:10069000827C24BF51F8043B40F8043B08BF7047FC
:1006A000D20728BF31F8023B48BF11F8012B28BF01
:1006B00020F8023B48BF00F8012B70474FF00002C2
:1006C0000429C0F0128010F0030C00F01F80CCF160
:1006D000040CBCF1020F18BF00F8012BA8BF20F8D2
:1006E000022BA1EB0C0100F011B85FEAC17C24BF22
:1006F00000F8012B00F8012B48BF00F8012B7047D0
:10070000007B00F0800070474FF0000200B51346F8
:1007100094469646203922BFA0E80C50A0E80C5021
:10072000B1F12001BFF4F7AF090728BFA0E80C50D2
:1007300048BF0CC05DF804EB890028BF40F8042BCB
:1007400008BF704748BF20F8022B11F0804F18BF38
:1007500000F8012B7047754600F02CF8AE460500F6
:100760006946534620F00700854618B020B5FFF7CC
:10077000D1FDBDE820404FF000064FF000074FF0DC
:1007800000084FF0000B21F00701AC46ACE8C009AF
:10079000ACE8C009ACE8C009ACE8C0098D467047B8
:1007A00010B50446AFF300802046BDE81040FFF7C7
:1007B0003CBD000000487047B854002010B500212F
:1007C000034A116051605321312000F0FBF910BD44
:1007D0002000002030B5CC1000F1200353F8243065
:1007E0004C07E50E0F24AC40A343CD1000F12004CC
:1007F00044F82530CC1000F1200353F824304C0786
:10080000E40E02FA04F42343CD1000F1200444F86E
:10081000253030BD2DE9F0470C46DDE908670021A1
:1008200000258C4600BF60E04FF0010808FA01F592
:1008300004EA050CAC4557D1D0F800804FEA410AD4
:100840004FF0030909FA0AF928EA0908C0F80080FC
:10085000D0F800804FEA410902FA09F948EA09088C
:10086000C0F80080012A01D0022A27D1D0F80880E0
:100870004FEA410A4FF0030909FA0AF928EA090880
:10088000C0F80880D0F808804FEA410906FA09F953
:1008900048EA0908C0F80880D0F804904FF0010831
:1008A00008FA01F829EA0809C0F80490D0F8048091
:1008B00003FA01F948EA0908C0F80480D0F80C806E
:1008C0004FEA410A4FF0030909FA0AF928EA090830
:1008D000C0F80C80D0F80C804FEA410907FA09F9FA
:1008E00048EA0908C0F80C80491C10299CD3BDE8CF
:1008F000F08700001CB50B48006840F02000094953
:1009000008600120032100230246CDE900104902BE
:100910000548FFF77FFF0120044908600449C1F83A
:10092000A8021CBD3038024000140240A48242429A
:10093000008042422DE9F0410746884614461D4694
:10094000284600F033F8C5F1040007FA00F60F203E
:10095000284100EA0800064306F00F06E21704EB00
:10096000D2625211920002F1E022D2F80021214617
:10097000E31704EBD3635B11A4EB431C012303FADD
:100980000CF31A432046E31704EBD3635B119B007F
:1009900003F1E023C3F800210348005D40EA06109C
:1009A00001490855BDE8F08100E400E00146072355
:1009B00023EA01021202054B18684FF6FF031840A4
:1009C000034B18431043014B186070470CED00E0D7
:1009D0000000FA054A0A52020243014B1A607047AE
:1009E00008ED00E0F0B504460D4616461F461448D3
:1009F000006840F0010012490860002010490831E9
:100A000008600F4800680F4908400D4908600E480B
:100A1000091D0860081F006820F48020091F086075
:100A2000002007490C3108603B46324629462046E3
:100A300000F028F800210846FFF7CCFFF0BD0000C9
:100A400000380240FFFFF6FE10300024042808D1D1
:100A50004FF0E021096941F004014FF0E0221161FB
:100A600007E04FF0E021096921F004014FF0E02296
:100A70001161704710B502F009F9012801D001F0A9
:100A80008BFD10BDF0B504460D46002100203D4E03
:100A9000366846F480363B4F3E6001E04E1CB1B2F2
:100AA000384E366806F400361EB941F6FF76B1427C
:100AB000F4DB41F6FF76B14201D1012060E0314E16
:100AC0004036366846F080562E4F40373E602E4EF8
:100AD000366846F440462C4F3E602A4E083636684B
:100AE00046F41446274F08373E60264E366826F0F7
:100AF0008076244F3E6045EA84160127C7EB5207F3
:100B000046EA074646EA036646F480061D4F3F1D47
:100B10003E603E1F366846F080763F1F3E6000BF55
:100B2000184E366806F00076002EF9D0174E36685B
:100B300046F48076154F3E603E46366846F40076B1
:100B40003E603E46366846F480663E603E46366805
:100B500046F005063E600B4E0836366826F0030662
:100B6000084F08373E603E46366846F002063E6053
:100B700000BF044E0836366806F00C06082EF8D181
:100B8000F0BD00000038024000700040003C024010
:100B90000A48008800F0010040B109480368406835
:100BA0005A1C40F1000006490A604860034800886A
:100BB00020F0010001490880704700001004004047
:100BC0002000002070B505460C461048006840F033
:100BD00002000E4908600E480560001F04800C48A2
:100BE0002038008840F00100094920390880084871
:100BF0002C38008840F0010005492C390880042376
:100C00001D2200210120FFF795FE70BD40380240F3
:100C10002C0400401C49098801F0200109B31A493D
:100C20008988C8B21949098801F40041C9B917492E
:100C3000098801F4804161B10A2803D00021134AD8
:100C4000118020E01149098841F400410F4A1180C8
:100C500019E00D2806D10D49098841F480410B4A5D
:100C6000118010E009490988C1F30D01084A505468
:100C700006490988491C054A118011460988C72977
:100C800001DD002111807047001001401C00002090
:100C9000A400002000BF704710B503460420FFF7F2
:100CA000D5FE0C4803701C464FF47A704443012073
:100CB000094908804FF0E020006940F002004FF041
:100CC000E021086108464461006940F001000861C4
:100CD00010BD00000E0000201000002000BF054ADB
:100CE000128802F04002002AF9D0C2B2014B9A8069
:100CF000704700000010014009E005480068C0434B
:100D00000449C1F8A4024FF47A7001F027F9F4E71E
:100D1000A4824242008042420DE000200649086061
:100D2000C82001F01BF901200449C1F8A8024FF4C2
:100D3000487001F013F9F0E7A88242420080424275
:100D40001CB501240723022208214FF4A870FFF7E5
:100D500049FEA820FFF7A0FF4FF4E131542000F036
:100D6000BFFEFFF7C7FD0948012100238022CDE91E
:100D7000001007A1094801F059FF14B101F08AFAE7
:100D800001E000201CBD00BFFEE7000000000020C5
:100D900073746172745F7461736B0000391A0008B8
:100DA0002DE9F04105460E461C4807681C480068BE
:100DB000001D00F015FF50B91948006890F82C107C
:100DC0000120884017490968814316480160681C62
:100DD00038B936B112480168091D134800F03EFFCA
:100DE0001AE07C190E4800684460BC4207D20C48E7
:100DF0000168091D0D48006800F016FF0CE0084866
:100E00000168091D0A48006800F00EFF09480068E3
:100E1000844201D207480460BDE8F0813C00002014
:100E200028000020400000207C040020300000202A
:100E30002C0000205800002010B5044600F01AFFD6
:100E400024480068401C234908602348006840B9D2
:100E5000214804600846006801280DD100F0EEF931
:100E60000AE01E48006838B91B480068C06AE16A99
:100E7000884201D81848046019480068401C184985
:100E8000086008460068A06494F82C10012088408F
:100E900014490968084313490860E16A01EB8101BC
:100EA000114A02EB8100211D00F0D8FE00F026FF60
:100EB0000A48006868B108480068C06AE16A884268
:100EC00007D24FF0805009490860BFF34F8FBFF33E
:100ED0006F8F10BD38000020280000204400002043
:100EE0005400002040000020AC01002004ED00E090
:100EF00010B500F0BFFE10480068D0B90F4800F0F0
:100F000083FE0F4800F080FE0C480E4908600C4834
:100F10000D49086000221021052001F057FB064909
:100F200008600846006820B108A10348006800F086
:100F3000D9FF00F0E3FE10BD7400002090040020F3
:100F4000A40400206C00002070000020546D725139
:100F50000000000070B523E001F0F4F913480068C8
:100F600008B9012000E00020054602F01BF8BDB9D9
:100F700000F080FE0D48C068C468201D00F030FEFF
:100F80000B480068401E0A4908600A480068401E75
:100F90000849086000F0B2FE204600F060F800BF8B
:100FA000044800680028D7D170BD00006804002004
:100FB000380000203400002070B504460D46206C37
:100FC00070B1216CE0680844E0606168E0688842C4
:100FD00001D32068E0602846226CE168FFF752FAEE
:100FE00070BD2DE9F04104460F4615464FF000084C
:100FF000A66B206C40B9206860BB606801F00CFFF4
:1010000080460020606025E07DB93946226CA068EA
:10101000FFF738FA216CA0680844A060D4E90110F9
:10102000884217D32068A06014E03946226CE0683B
:10103000FFF728FA216CE068401AE0602168E06858
:10104000884203D2216C6068401AE060022D01D111
:1010500006B1761E701CA0634046BDE8F08110B555
:101060000446206B00F082FE204600F07FFE10BD9B
:101070000146084A126812680AB9012200E00022FB
:101080000A600A6822B9034A1268D268106800E050
:10109000002070476C00002030B54FF4A043174883
:1010A00000F007042CB1C01D20F00700134C041BF6
:1010B0001B1B0246124C22600024114D6C60D0189C
:1010C000083820F007000F4C206000240D4D2D68DB
:1010D0006C600C4D2D682C601146441A4C60094C14
:1010E00024680C60084D4C682C60084D4C682C60DE
:1010F0004FF00044064D2C6030BD0000B8040020C5
:101100008000002088000020900000208C0000203B
:101110009400002000BFFFF71DFF0648006801286B
:10112000F9D94FF0805004490860BFF34F8FBFF3E7
:101130006F8FF0E7AC01002004ED00E02DE9F041F5
:1011400006460D4617469846069C0DB9246000E0F9
:101150002760E66325640121204601F055FB84F8F1
:1011600050800020A064BDE8F08100002DE9F05F10
:1011700082460F4690469B460A9E0C9C4FEA880189
:10118000A522206BFFF7C3F9A8F10100216B01EB49
:10119000800929F0070909F0070008B9012000E0DB
:1011A000002028B940F22B321BA120A0FFF7C4F881
:1011B000002507E0795D04F134004155785D00B900
:1011C00002E06D1C142DF5D300BF0021472001550E
:1011D000202E00D31F26E662266500206065201DB4
:1011E00000F01FFD04F1180000F01BFD2461C6F1A2
:1011F0002000A06164620020A065E06584F86000C2
:101200005A465146484600F001FC20600B9808B150
:101210000B980460BDE8F09F2E2E5C467265655207
:10122000544F535C7461736B732E63004572726F1D
:10123000723A25732C25640D0A00000010B50024B5
:1012400007E004EB84010F4A02EB810000F0DCFCB4
:10125000641C202CF5D30C4800F0D6FC0B4800F0A1
:10126000D3FC0B4800F0D0FC0A4800F0CDFC0A4843
:1012700000F0CAFC044809490860044808490860AD
:1012800010BD0000AC0100202C0400204004002010
:1012900054040020680400207C0400202C0000205E
:1012A0003000002010B50146164800E000680368D1
:1012B0008B42FBD30246436813448B4204D14368FC
:1012C0004C682344436001460A464B681344046853
:1012D000A34211D10C4C03682468A34208D04B6888
:1012E0000468646823444B6003681B680B6005E076
:1012F000054B1B680B6001E003680B60884200D05F
:10130000016010BD80000020880000202DE9F04120
:1013100004460D4616461F464FF0000865602461DE
:10132000B5420CD8F01BA169884202D34FF00108E6
:1013300011E0211D0948006800F076FC0BE0BE4278
:1013400004D2BD4202D34FF0010804E0211D04483D
:10135000006800F069FC4046BDE8F08170000020A4
:101360006C00002070B5054600F084FCA86B08B93D
:10137000012400E0002400F0C1FC204670BD70B5DF
:10138000054600F077FCA86BE96B884201D1012487
:1013900000E0002400F0B2FC204670BD2DE9F341CE
:1013A0000D460098846C00272CB940F6CE121AA185
:1013B0001EA0FEF7C1FFA06BE16B884201D20120A5
:1013C00000E0002028B940F6CF1213A117A0FEF7C5
:1013D000B3FFA06BE16B88421BD294F945602A46AB
:1013E00069462046FFF7FDFD0746701C60B9606A3C
:1013F00008B9012000E0002050B904F1240001F0F8
:1014000077FD28B1012703E0701C40B284F8450045
:1014100000BF3846BDE8FC812E2E5C4672656552E1
:10142000544F535C71756575652E63004572726F1C
:10143000723A25732C25640D0A000000F8B50546A4
:101440000F4613480068C068C468201D00F0C8FB40
:10145000E069012818D1A06941192B463A46204677
:10146000FFF754FF80B1002003462A460146009052
:10147000204601F061FE06462EB94FF4027205A126
:101480000AA0FEF759FF00BF2046616A8847F8BDF1
:101490006C0000202E2E5C4672656552544F535CE2
:1014A00074696D6572732E63000000004572726F7F
:1014B000723A25732C25640D0A000000F0B587B040
:1014C00070E0039800280CDA04AE2EB940F2E7224F
:1014D0003AA140A0FEF730FFD6E90020B16890475E
:1014E00000BF039800285DDB059C606908B90120F6
:1014F00000E0002010B9201D00F072FB02A800F0EF
:10150000C7F8054603980A284AD2DFE800F0090523
:10151000072C2E4506082D2F00BF00BF00BF00BFBF
:101520000498A269811803462A462046FFF7EEFE7A
:10153000C0B12046616A8847E069012812D10020C5
:1015400000900498A169421800231946204601F032
:10155000F3FD07462FB940F2213218A11DA0FEF776
:10156000EBFE00BF1DE000BF1BE000BF0498A061C0
:10157000A06908B1012000E0002028B94FF44E72A4
:101580000EA114A0FEF7D8FEA06941192B462A46E9
:101590002046FFF7BBFE04E0204600F0E7FB00E03A
:1015A00000BF00BF00231A4603A90E48006801F0DF
:1015B00047F8002885D107B0F0BD00002E2E5C460C
:1015C00072656552544F535C74696D6572732E6316
:1015D000000000004572726F723A25732C25640D6D
:1015E0000A00000074000020F8B505460C4600F023
:1015F000A9FE684600F04CF80646009820BB44B9A6
:10160000B54206D801F0CEFC31462846FFF716FF5A
:101610001CE03CB10E480068006808B9012000E0F9
:1016200000200446A91B22460A48006800F070FC0E
:1016300001F0B8FC50B94FF0805007490860BFF383
:101640004F8FBFF36F8F01E001F0ACFCF8BD0000DD
:10165000700000207400002004ED00E00A490968D1
:10166000096809B9012100E0002121B14FF0FF31E3
:10167000064A116006E004490968C968C868034A57
:1016800041681160704700002C00002058000020C5
:1016900070B5044601F00AFB05460748006885421C
:1016A00004D200F00BF80120206001E0002020604F
:1016B00001480560284670BD7C0000202DE9F843F4
:1016C0002DE021480068C06805681F480068C068B0
:1016D000C468201D00F084FA2046616A8847E069EA
:1016E00001281CD1A0694619AE4207D96660246161
:1016F000211D1548006800F097FA10E0002003460D
:101700002A4601460090204601F016FD07462FB9F3
:1017100040F292320DA113A0FEF70EFE00BF0A4860
:101720000068006808B9012000E000200028C8D047
:101730000548D0F800800F480068034908600D484C
:10174000C0F80080BDE8F8836C0000202E2E5C46B7
:1017500072656552544F535C74696D6572732E6384
:10176000000000004572726F723A25732C25640DDB
:101770000A000000700000200C480068401C08B9F6
:10178000012000E0002028B940F20F1208A113A0A8
:10179000FEF7D2FD00BF502080F31188BFF34F8FBA
:1017A000BFF36F8F00BF00BFFEE70000980000206E
:1017B0002E2E5C4672656552544F535C706F727486
:1017C00061626C655C525644535C41524D5F434DBF
:1017D00034465C706F72742E630000004572726F45
:1017E000723A25732C25640D0A00000008B500BF6D
:1017F0006846FFF73DFC044620460099FFF7F4FEDB
:10180000FFF75CFEF4E770B5044600F033FA94F994
:1018100045501AE0A06C38B100212046FFF7BEFD0C
:1018200088B100F05BFC0EE0606A08B9012000E0BE
:10183000002038B904F1240001F05AFB18B100F07F
:101840004DFC00E003E0681E45B2002DE2DC00BF65
:10185000FF2084F8450000F051FA00F00BFA94F9EB
:10186000445010E0206908B9012000E0002048B988
:1018700004F1100001F03CFB08B100F02FFC681EE1
:1018800045B200E001E0002DECDC00BFFF2084F851
:10189000440000F033FA70BD2DE9F04104464FF0EA
:1018A000000800F04FFD3E48006808B9FFF7F4FB60
:1018B0003C480068204000285FD1A4B1083404F0FF
:1018C000070080B104F00700C0F10800044404F0F0
:1018D000070008B9012000E0002020B9BF2232A192
:1018E0003BA0FEF729FD002C47D03D48006884420C
:1018F00043D83C4E3046056801E02E462D686868A6
:10190000A04202D228680028F7D125480068854205
:1019100033D0306800F10808286830606868001B20
:10192000102813D92F1907F0070008B9012000E08B
:10193000002020B9EC221CA125A0FEF7FDFC686860
:10194000001B78606C603846FFF7ACFC244968687F
:101950000968081A2249086008460068224909688F
:10196000884203D21E4800681F4908600D49686814
:101970000968084368600020286001F013FB08F044
:10198000070008B9012000E0002028B94FF4967242
:1019900005A10FA0FEF7D0FC4046BDE8F081000095
:1019A00088000020940000202E2E5C46726565524F
:1019B000544F535C706F727461626C655C4D656D01
:1019C0004D616E675C686561705F342E6300000076
:1019D0004572726F723A25732C25640D0A0000005F
:1019E0008C00002080000020900000200648006845
:1019F00030B10549096801F15400496D491C016085
:101A0000014800687047000028000020001F4FF0C8
:101A100080730360001F21F001030360001F054B6A
:101A2000036014380260001F6FF002030360203867
:101A300070470000791700087CB50546012400F0C6
:101A400019F91248022100233222CDE9001010A119
:101A5000124801F0EBF814B111A0FEF76DFC154827
:101A6000032100233222CDE9001013A1154801F013
:101A7000DDF8012C02D114A0FEF75EFC17480068C7
:101A800000F0A6FA00F03AF97CBD00000400002046
:101A90006C6564305F7461736B000000F90C0008C2
:101AA0005461636B5F6C656430B4B4BDA8B3C9B9ED
:101AB000A6A3A100080000206C6564315F74617307
:101AC0006B000000190D00085461636B5F6C656466
:101AD00031B4B4BDA8B3C9B9A6A3A10000000020C9
:101AE000F0B52DED028B83B005460E46384905FB57
:101AF00001F000EE100AF8EE400A300100EE100A84
:101B0000B8EE400A80EE801AB0EE418ABCEEC80AF8
:101B100010EE100A84B200EE104AB8EE400A38EE19
:101B2000400AF3EE000A20EE200ABCEEC00A10EED6
:101B3000107A4FF6FF7000EA0414E01984B22548C9
:101B4000006840F001002349086022481430006812
:101B500040F010001F4914310860012002210023C9
:101B60000A46CDE900104FF4C0611B48FEF752FE53
:101B7000072209211848FEF72DFE07220A211648E0
:101B8000FEF728FE15480481808920F4004013499F
:101B900088810846808940F008008881084680894D
:101BA00040F0040088810846808940F02000888148
:101BB0000223252203210846FEF7BCFE0748808940
:101BC00040F400500549888103B0BDEC028BF0BDA4
:101BD00040420F0030380240000002400010014037
:101BE00001460A69D1E901309860D1E901035860E2
:101BF0005068884201D188685060002008611068F0
:101C0000401E10601068704700F1080141604FF0FD
:101C1000FF31816000F10801C160016100210160B4
:101C2000704700210161704710B502460B685C1CCB
:101C30000CB9106907E002F1080000E04068446850
:101C400024689C42FAD944684C604C68A160886062
:101C500041600A611468641C146010BD42684A60E7
:101C600093688B60936859609160086103685B1C9E
:101C70000360704710B500BF502080F31188BFF398
:101C80004F8FBFF36F8F00BF0B480068401C0A499D
:101C900008600846006801280DD108480068C0B2F5
:101CA00008B9012000E0002028B940F2B91204A1CF
:101CB0000EA0FEF741FB10BD9800002004ED00E0EF
:101CC0002E2E5C4672656552544F535C706F727471
:101CD00061626C655C525644535C41524D5F434DAA
:101CE00034465C706F72742E630000004572726F30
:101CF000723A25732C25640D0A00000010B50B48BC
:101D0000006828B94FF4E07209A114A0FEF714FB93
:101D100006480068401E054908600846006820B96A
:101D2000002080F3118800BF00BF10BD9800002084
:101D30002E2E5C4672656552544F535C706F727400
:101D400061626C655C525644535C41524D5F434D39
:101D500034465C706F72742E630000004572726FBF
:101D6000723A25732C25640D0A00000070B50646F2
:101D70003546002E35D0083D2C461A496068096862
:101D8000084008B1012000E0002028B94FF4A072FB
:101D900015A11FA0FEF7D0FA206808B9012000E0C5
:101DA000002028B940F241120FA119A0FEF7C4FA91
:101DB0000C4960680968084098B1206888B90949E9
:101DC000606809688843606000F0BCFA1449606884
:101DD00009680844124908602046FFF763FA01F0D9
:101DE000E1F870BD940000202E2E5C4672656552AD
:101DF000544F535C706F727461626C655C4D656DBD
:101E00004D616E675C686561705F342E6300000031
:101E10004572726F723A25732C25640D0A0000001A
:101E20008C000020064800684FF47A71B0FBF1F096
:101E3000401E4FF0E0214861072008617047000014
:101E40001400002070B5FEF74FFA0546102D11D38F
:101E500005F1E02090F8F04310480078844201DB5F
:101E6000012000E0002028B94FF440720CA117A017
:101E7000FEF762FA1948006800F4E0601849096842
:101E8000884201D8012000E0002028B94FF44472B4
:101E900003A10EA0FEF750FA70BD00009C000020C8
:101EA0002E2E5C4672656552544F535C706F72748F
:101EB00061626C655C525644535C41524D5F434DC8
:101EC00034465C706F72742E630000004572726F4E
:101ED000723A25732C25640D0A0000000CED00E019
:101EE000A0000020024600200BE0084B53F83030E1
:101EF00033B9064B43F8301003EBC0035A6002E0DD
:101F0000401C0828F1D300BF704700006C0100207E
:101F10002DE9F04105460E4617462C46FFF7AAFE6E
:101F200094F94400401C10B9002084F8440094F94E
:101F30004500401C10B9002084F84500FFF7DEFE84
:101F4000A06B28B93A46314604F1240000F0F6F8B7
:101F50002046FFF758FCBDE8F081000070B504464C
:101F60000025ACB10F48006808B9012000E000204E
:101F700028B940F2CF420CA110A0FEF7DDF900F025
:101F8000E1F900212046FEF70BFF01F00BF80546B2
:101F90003DB94FF080500D490860BFF34F8FBFF33C
:101FA0006F8F70BD600000202E2E5C4672656552FA
:101FB000544F535C7461736B732E63004572726F80
:101FC000723A25732C25640D0A00000004ED00E030
:101FD00070B50546FFF74EFE15B92D48006800E0C4
:101FE00028460446201DFFF7FBFD78B9E06A00EBA8
:101FF0008000284951F8200040B994F82C100120A5
:10200000884025490968814323480160A06A18B1C6
:1020100004F11800FFF7E4FD20480068401C1F4948
:1020200008601B480068844209D1211D1C48FFF745
:1020300015FE1C480068401C1A49086009E01A484F
:102040000068401E184908602046FFF708F8FFF7AF
:1020500005FBFFF753FE15480068C0B10C48006847
:10206000844214D11248006808B9012000E0002021
:1020700028B940F265420FA113A0FEF75DF94FF0B9
:10208000805015490860BFF34F8FBFF36F8F70BD4D
:1020900028000020AC010020400000205400002057
:1020A0006804002034000020380000204400002094
:1020B000600000202E2E5C4672656552544F535CC2
:1020C0007461736B732E63004572726F723A25737D
:1020D0002C25640D0A00000004ED00E001200149F8
:1020E000086070474C00002070B504460D462CB9BE
:1020F00040F6063207A10CA0FEF71EF90E48016853
:1021000018312046FFF790FD01212846FEF748FED2
:1021100070BD00002E2E5C4672656552544F535CB4
:102120007461736B732E63004572726F723A25731C
:102130002C25640D0A0000002800002070B505461B
:102140000E4614462DB940F6313209A10DA0FEF716
:10215000F3F81048016818312846FFF77FFD0CB1ED
:102160004FF0FF3621463046FEF71AFE70BD0000E4
:102170002E2E5C4672656552544F535C7461736BCE
:10218000732E63004572726F723A25732C25640DAD
:102190000A0000002800002070B505462C46002DDE
:1021A0004BD02649E06A0968C96A884245D2A069CD
:1021B00000F0004028B921480068C06AC0F1200042
:1021C000A061E16A01EB81011D4A02EB81016069B6
:1021D000884201D1012000E0002050B3201DFFF70C
:1021E000FFFC78B9E06A00EB8000154951F8200047
:1021F00040B994F82C1001208840124909688143A5
:10220000104801600D480068C06AE06294F82C1024
:10221000012088400B49096808430A490860E16ABF
:1022200001EB8101064A02EB8100211DFFF716FD3B
:1022300003E002480068C06AE06270BD2800002028
:10224000AC0100204000002010B504462CB940F637
:10225000C13205A109A0FEF76FF80C4800682060A4
:102260000B480068606010BD2E2E5C46726565529A
:10227000544F535C7461736B732E63004572726FBD
:10228000723A25732C25640D0A00000050000020CE
:102290003C0000201CB51B4800210B468222CDE9E2
:1022A000001019A11A4800F0C1FC0446012C02D10B
:1022B00000F008FF0446012C17D100BF502080F326
:1022C0001188BFF34F8FBFF36F8F00BF4FF0FF3008
:1022D0001049086001201049086000200F4908607B
:1022E000FEF76CFA00F0AAF80BE0601C08B10120C0
:1022F00000E0002028B940F2847209A10DA0FEF789
:102300001BF81CBD5C00002049444C450000000047
:102310001511000858000020440000203C00002057
:102320002E2E5C4672656552544F535C7461736B1C
:10233000732E63004572726F723A25732C25640DFB
:102340000A00000002480068401C0149086070470C
:102350006000002010B52848006818B10120274906
:10236000086048E000202549086025490868496858
:1023700024490860084600682349096888420BD947
:102380002249096801F15800896D1E4A12681E4BE6
:102390001B68D21A114401601A4800681A49086083
:1023A0001B480068B0FA80F0C0F11F0404EB840001
:1023B000184951F8200008B1012000E0002028B998
:1023C00040F6F62214A119A0FDF7B6FF04EB840134
:1023D000104A02EB810041684968416000F1080140
:1023E00042688A4202D14168496841604168C968CF
:1023F000064A116000BF10BD600000204C000020A4
:102400002000002068000020640000202800002038
:1024100040000020AC0100202E2E5C467265655203
:10242000544F535C7461736B732E63004572726F0B
:10243000723A25732C25640D0A0000001CB5404833
:1024400000684049884201D0012000E0002028B9FE
:1024500040F259123CA147A0FDF76EFF38480068D2
:102460003849491E884201D0012000E0002028B9E7
:102470004FF4AD7234A13FA0FDF75EFF414C204602
:1024800000780190FF2021460870084600780090EF
:102490009DF8000000F0F0009DF80010884201D186
:1024A000012000E0002028B940F2731226A131A0DB
:1024B000FDF742FF9DF8000000F05000324908701F
:1024C00007203249086009E030480068401E2F4963
:1024D00008609DF800004006000E00909DF8000086
:1024E00000F080008028EFD02848006800022749CB
:1024F00008600846008800F4E060086021490198FF
:1025000008700F482030006840F470000C492031FA
:1025100008600846006840F070400860FFF782FCE1
:1025200000201B490860FDF7A7FE1A48006840F02C
:10253000404018490860FDF78FFE00201CBD0000D8
:1025400000ED00E071C20F412E2E5C4672656552AF
:10255000544F535C706F727461626C655C52564488
:10256000535C41524D5F434D34465C706F72742E24
:10257000630000004572726F723A25732C25640D5A
:102580000A00000000E400E09C000020A000002001
:102590009800002034EF00E010B500BF502080F319
:1025A0001188BFF34F8FBFF36F8F00BF00F084FB24
:1025B00018B14FF080500449086000BF002080F33C
:1025C000118800BF10BD000004ED00E02DE9F843C4
:1025D00005460E4690460DB1012000E0002028B9C6
:1025E0004FF4C4720DA112A0FDF7A6FE0EB900278C
:1025F00001E005FB06F707F15400FFF74DF904462B
:1026000044B104F1540943464A46314628460094F1
:10261000FEF794FD2046BDE8F88300002E2E5C46B0
:1026200072656552544F535C71756575652E630014
:102630004572726F723A25732C25640D0A000000F2
:102640002DE9FF4782B005460E461F464FF0000AAF
:102650002C462CB940F2DC4261A166A0FDF76CFE6D
:102660000EB9206C08B9012000E0002028B940F222
:10267000DD425BA15FA0FDF75FFE00F007FB08B93C
:10268000049808B9012000E0002028B94FF49C62AA
:1026900053A158A0FDF750FE00BFFFF7EBFAD4F8A6
:1026A0003890B9F1000F3DD0D4F80C803146204667
:1026B000FEF782FCDFB9A9F10100A063206810B920
:1026C000FFF794F96060206908B9012000E000205C
:1026D00010BB04F1100000F00BFCE8B14FF080508B
:1026E00048490860BFF34F8FBFF36F8F14E0C4F801
:1026F0000C80606A08B9012000E0002060B904F194
:10270000240000F0F5FB38B14FF080503D490860DF
:10271000BFF34F8FBFF36F8FFFF7F0FA012006B0C2
:10272000BDE8F087049818B9FFF7E8FA0020F6E74B
:10273000BAF1000F04D16846FFF786FD4FF0010A99
:10274000FFF7DCFAFFF7FEFDFFF794FA94F9440077
:10275000401C10B9002084F8440094F94500401C46
:1027600010B9002084F84500FFF7C8FA04A96846AC
:1027700000F00CFA40BB2046FEF7F4FDF0B12068F3
:1027800030B9FFF777FA6068FFF706FDFFF7B6FA92
:1027900004F124000499FFF7A7FC2046FFF733F863
:1027A00000F000FC00287FF478AF4FF0805015490E
:1027B0000860BFF34F8FBFF36F8F6EE72046FFF7C0
:1027C00022F800F0EFFB68E72046FFF71CF800F066
:1027D000E9FB2046FEF7C6FD0028EED000209EE76C
:1027E0002E2E5C4672656552544F535C717565754B
:1027F000652E63004572726F723A25732C25640D45
:102800000A00000004ED00E070B505460E462C46B7
:102810002CB940F21B121EA122A0FDF78DFDFFF77F
:1028200029FAD4E90F12206801FB02006060002041
:10283000A0632068A060E06B401E226C216800FB52
:102840000210E060FF2084F8440084F845009EB93F
:10285000206908B9012000E00020A8B904F11000A7
:1028600000F046FB80B14FF0805012490860BFF382
:102870004F8FBFF36F8F07E004F11000FFF7C4F92B
:1028800004F12400FFF7C0F9FFF738FA012070BD0A
:102890002E2E5C4672656552544F535C717565759A
:1028A000652E63004572726F723A25732C25640D94
:1028B0000A00000004ED00E02DE9FF4383B0064666
:1028C00088461D464FF0000934462CB940F2D92203
:1028D00060A165A0FDF730FDB8F1000F01D1206CBB
:1028E00008B9012000E0002028B940F2DA2259A1FD
:1028F0005DA0FDF721FD022D02D1E06B012801D181
:10290000012000E0002028B940F2DB2251A156A0AE
:10291000FDF712FD00F0BAF908B9059808B90120D1
:1029200000E0002028B940F2DE224AA14EA0FDF7C7
:1029300003FD00BFFFF79EF9A06BE16B884201D356
:10294000022D38D12A4641462046FEF74AFB07466B
:10295000A06C68B129462046FEF720FD28B34FF051
:10296000805045490860BFF34F8FBFF36F8F1CE065
:10297000606A08B9012000E0002068B904F1240071
:1029800000F0B6FA88B14FF080503B490860BFF3C1
:102990004F8FBFF36F8F08E03FB14FF08050364943
:1029A0000860BFF34F8FBFF36F8FFFF7A7F90120C8
:1029B00007B0BDE8F083059818B9FFF79FF900202C
:1029C000F6E7B9F1000F04D101A8FFF73DFC4FF085
:1029D0000109FFF793F9FFF7B5FCFFF74BF994F9FD
:1029E0004400401C10B9002084F8440094F94500CC
:1029F000401C10B9002084F84500FFF77FF905A9B5
:102A000001A800F0C3F8F0B92046FEF7B8FCA0B169
:102A100004F110000599FFF767FB2046FEF7F3FE6F
:102A200000F0C0FA002885D14FF0805012490860AC
:102A3000BFF34F8FBFF36F8F7CE72046FEF7E3FEB7
:102A400000F0B0FA76E72046FEF7DDFE00F0AAFAC5
:102A50000020ADE72E2E5C4672656552544F535CE4
:102A600071756575652E63004572726F723A2573D4
:102A70002C25640D0A00000004ED00E02DE9F05F54
:102A800080468A4615461E4644462CB940F29F327F
:102A900035A13AA0FDF750FCBAF1000F01D1206C2E
:102AA00008B9012000E0002028B94FF468722EA177
:102AB00032A0FDF741FC022E02D1E06B012801D1CA
:102AC000012000E0002028B940F2A13226A12BA06D
:102AD000FDF732FCFFF7B6F900BF5021EFF311808C
:102AE00081F31188BFF34F8FBFF36F8F00BF07468D
:102AF000A06BE16B884201D3022E2BD194F945B033
:102B0000324651462046FEF76CFA0BF10100C8B977
:102B1000A06C40B131462046FEF740FCB8B1B5B1DB
:102B20000120286013E0606A08B9012000E000205D
:102B300068B904F1240000F0DBF940B13DB1012097
:102B4000286004E00BF1010040B284F845004FF02A
:102B5000010901E04FF0000900BF87F3118800BFB1
:102B60004846BDE8F09F00002E2E5C467265655217
:102B7000544F535C71756575652E63004572726FB5
:102B8000723A25732C25640D0A0000002DE9F041EE
:102B900004460D462CB940F6CB3219A11DA0FDF715
:102BA000CBFB2DB940F6CC3215A11AA0FDF7C4FB22
:102BB000FFF760F81B4807682868401C08B9002622
:102BC00019E0194920680968884204D06068B84251
:102BD00001D801260FE06068381A2968884209D2B6
:102BE00028686168791A401A28602046FFF72CFB94
:102BF000002600E00126FFF781F83046BDE8F081AD
:102C00002E2E5C4672656552544F535C7461736B33
:102C1000732E63004572726F723A25732C25640D12
:102C20000A0000003C000020500000202DE9FF4F6A
:102C300085B0804689461746DDE912ABB800FEF73D
:102C40002BFE064656B16420FEF726FE04460CB164
:102C5000266304E03046FFF789F800E000247CB1E9
:102C60000020CDE900ABCDE902403A464946404656
:102C7000089BFEF77BFA2046FEF7DEF8012501E00F
:102C80004FF0FF35284609B0BDE8F08F05490968C7
:102C900009B9012005E00449096809B9022000E0EA
:102CA00000207047440000206000002001490868AF
:102CB000704700003C0000202DE9F0414FF0000873
:102CC00041480068002872D140480068451C3F48D0
:102CD0000560EDB93E480068006808B9012000E0D1
:102CE000002028B940F6D9123AA13FA0FDF724FBF5
:102CF0003748076840480068354908603E48076023
:102D00003E480068401C3D490860FEF7A7FC00BF34
:102D10003B48006885423CD300BF2D4800680068EE
:102D200008B9012000E0002020B14FF0FF30344905
:102D300008602DE026480068C068C4686668B5422F
:102D400002D22F48066023E0201DFEF749FFA06A4B
:102D500018B104F11800FEF743FF94F82C1001207D
:102D6000884028490968084326490860E16A01EB60
:102D70008101254A02EB8100211DFEF76FFF2349E7
:102D8000E06A0968C96A8842C7D34FF00108C4E7FE
:102D900000BF1E480068C06A00EB80001A4951F865
:102DA0002000012801D94FF0010805E0FFE718488D
:102DB0000068401C164908601648006808B14FF0CA
:102DC00001084046BDE8F081600000203C00002082
:102DD0002C0000202E2E5C4672656552544F535CC9
:102DE0007461736B732E63004572726F723A257350
:102DF0002C25640D0A000000300000205000002047
:102E00005800002040000020AC01002028000020D5
:102E1000480000204C00002070B505462C460026D6
:102E2000002D4BD026480068844201D1012000E0EB
:102E3000002028B940F6C76222A127A0FDF77CFA3E
:102E4000606D28B940F6C9621EA123A0FDF774FA8F
:102E5000606D401E6065216DE06A88422ED0606D15
:102E600060BB201DFEF7BCFE78B9E06A00EB800075
:102E70001D4951F8200040B994F82C1001208840D9
:102E80001A490968814319480160206DE062E06ACF
:102E9000C0F12000A06194F82C1001208840134953
:102EA0000968084311490860E16A01EB81010E4A93
:102EB00002EB8100211DFEF7D1FE0126304670BDD8
:102EC000280000202E2E5C4672656552544F535CDC
:102ED0007461736B732E63004572726F723A25735F
:102EE0002C25640D0A000000AC01002040000020E9
:102EF00070B50646F068C4682CB940F661321AA174
:102F00001EA0FDF719FA04F11800FEF769FE1F482C
:102F10000068A8B9201DFEF763FE94F82C1001206C
:102F200088401B490968084319490860E16A01EBB8
:102F30008101184A02EB8100211DFEF78FFE04E09B
:102F400004F118011448FEF789FE1449E06A096883
:102F5000C96A884204D9012501201149086000E0AE
:102F60000025284670BD00002E2E5C467265655215
:102F7000544F535C7461736B732E63004572726FB0
:102F8000723A25732C25640D0A00000060000020B1
:102F900040000020AC010020540400202800002044
:102FA0004C00002070B5002400263448006828B981
:102FB0004FF4FD6232A137A0FDF7BEF9FEF75AFECD
:102FC0002E480068401E2D49086008460068002809
:102FD0004FD13448006800284BD024E03248C06804
:102FE000C46804F11800FEF7FBFD201DFEF7F8FD94
:102FF00094F82C10012088402C49096808432B497B
:103000000860E16A01EB8101294A02EB8100211D80
:10301000FEF724FE2749E06A0968C96A884202D39C
:103020000120254908602048006808B9012000E017
:1030300000200028D2D00CB1FEF710FB1F48056815
:1030400065B100BFFFF738FE10B101201A490860D2
:103050006D1E002DF6D10020184908601648006842
:1030600038B10126300716490860BFF34F8FBFF310
:103070006F8FFEF743FE304670BD000060000020F9
:103080002E2E5C4672656552544F535C7461736BAF
:10309000732E63004572726F723A25732C25640D8E
:1030A0000A000000380000205404002040000020E6
:1030B000AC010020280000204C0000204800002027
:1030C00004ED00E01CB50024FDF712FF0B4800687A
:1030D00058B10B481F2100234FF48272CDE9001034
:1030E00008A10A48FFF7A2FD04462CB940F23312AA
:1030F00007A10DA0FDF720F920461CBD740000209B
:1031000078000020546D722053766300ED1700089C
:103110002E2E5C4672656552544F535C74696D6522
:1031200072732E63000000004572726F723A25734D
:103130002C25640D0A0000002DE9FF4704460D46CA
:1031400016461F46DDF830804FF000092CB94FF4C9
:10315000D37217A11CA0FDF7EFF81F48006810B349
:10316000009501960294062D15DAFFF78FFD0228CF
:1031700008D100234246694617480068FFF79CFBC8
:10318000814610E000231A46694613480068FFF79D
:1031900093FB814607E000233A4669460E480068E3
:1031A000FFF76CFC8146484604B0BDE8F08700009C
:1031B0002E2E5C4672656552544F535C74696D6582
:1031C00072732E63000000004572726F723A2573AD
:1031D0002C25640D0A000000740000204FF04070A0
:1031E000E1EE100A704700000832000800000020DD
:1031F000A4000000C4010008AC320008A4000020B4
:1032000074580000E0010008000000000000000009
:10321000000000000000000000000000007A030A27
:10322000000000000000000000000000000000009E
:10323000000000000000000000000000000000008E
:10324000000000000000000000000000000000007E
:10325000000000000000000000000000000000006E
:10326000000000000000000000000000000000005E
:10327000000000000000000000000000000000004E
:10328000000000000000000000000000000000003E
:10329000000000000000000000000000000000002E
:0C32A000AAAAAAAA00000000000000007A
:040000050800018965
:00000001FF
